{
  "transactions": [
    {
      "hash": "0x39d417492ac8f6588a3bb00c7021be39bcfcea8560d98ee8d157a34032e29890",
      "transactionType": "CREATE",
      "contractName": "MinimalAccountV6",
      "contractAddress": "0x93ee03f80d4e41785ae155fb2b64bec4ee302055",
      "function": null,
      "arguments": [
        "0x5FF137D4b0FDCD49DcA30c7CF57E578a026d2789",
        "0x023c6911c69b6c0E70A76C27b23fe1A32b08Bf98"
      ],
      "transaction": {
        "from": "0x023c6911c69b6c0e70a76c27b23fe1a32b08bf98",
        "gas": "0x73258",
        "value": "0x0",
        "input": "0x60c060405234801561000f575f5ffd5b5060405161065338038061065383398101604081905261002e91610060565b6001600160a01b039182166080521660a052610091565b80516001600160a01b038116811461005b575f5ffd5b919050565b5f5f60408385031215610071575f5ffd5b61007a83610045565b915061008860208401610045565b90509250929050565b60805160a05161058f6100c45f395f818160cd01526101de01525f818160530152818160fb0152610238015261058f5ff3fe608060405234801561000f575f5ffd5b506004361061004a575f3560e01c8063140fcfb11461004e5780633a871cdd14610092578063b61d27f6146100b3578063dba6335f146100c8575b5f5ffd5b6100757f000000000000000000000000000000000000000000000000000000000000000081565b6040516001600160a01b0390911681526020015b60405180910390f35b6100a56100a03660046103f6565b6100ef565b604051908152602001610089565b6100c66100c1366004610445565b61022d565b005b6100757f000000000000000000000000000000000000000000000000000000000000000081565b5f336001600160a01b037f0000000000000000000000000000000000000000000000000000000000000000161461015e5760405162461bcd60e51b815260206004820152600e60248201526d139bdd08115b9d1c9e541bda5b9d60921b60448201526064015b60405180910390fd5b7f19457468657265756d205369676e6564204d6573736167653a0a3332000000005f908152601c849052603c8120906101d88261019f6101408901896104d5565b8080601f0160208091040260200160405190810160405280939291908181526020018383808284375f9201919091525061033c92505050565b505090507f00000000000000000000000000000000000000000000000000000000000000006001600160a01b0316816001600160a01b03161461022057600192505050610226565b5f925050505b9392505050565b336001600160a01b037f000000000000000000000000000000000000000000000000000000000000000016146102965760405162461bcd60e51b815260206004820152600e60248201526d139bdd08115b9d1c9e541bda5b9d60921b6044820152606401610155565b5f846001600160a01b03168484846040516102b292919061051f565b5f6040518083038185875af1925050503d805f81146102ec576040519150601f19603f3d011682016040523d82523d5f602084013e6102f1565b606091505b50509050806103355760405162461bcd60e51b815260206004820152601060248201526f115e1958dd5d1a5bdb8811985a5b195960821b6044820152606401610155565b5050505050565b5f5f5f5f5f5f865160411461035d57505f94508493508392506103ef915050565b5050506020840151604085015160608601515f1a601b81101561038857610385601b8261052e565b90505b604080515f808252602082018084528b905260ff841692820192909252606081018590526080810184905260019060a0016020604051602081039080840390855afa1580156103d9573d5f5f3e3d5ffd5b5050604051601f19015197509395509193505050505b9250925092565b5f5f5f60608486031215610408575f5ffd5b833567ffffffffffffffff81111561041e575f5ffd5b84016101608187031215610430575f5ffd5b95602085013595506040909401359392505050565b5f5f5f5f60608587031215610458575f5ffd5b84356001600160a01b038116811461046e575f5ffd5b935060208501359250604085013567ffffffffffffffff811115610490575f5ffd5b8501601f810187136104a0575f5ffd5b803567ffffffffffffffff8111156104b6575f5ffd5b8760208284010111156104c7575f5ffd5b949793965060200194505050565b5f5f8335601e198436030181126104ea575f5ffd5b83018035915067ffffffffffffffff821115610504575f5ffd5b602001915036819003821315610518575f5ffd5b9250929050565b818382375f9101908152919050565b60ff818116838216019081111561055357634e487b7160e01b5f52601160045260245ffd5b9291505056fea2646970667358221220e7c9f318ee2f7957e3b4a0b78c977c68b60facc0614882811aea24d0018b43ca64736f6c634300081c00330000000000000000000000005ff137d4b0fdcd49dca30c7cf57e578a026d2789000000000000000000000000023c6911c69b6c0e70a76c27b23fe1a32b08bf98",
        "nonce": "0x42",
        "chainId": "0xaa36a7"
      },
      "additionalContracts": [],
      "isFixedGasLimit": false
    },
    {
      "hash": "0x1014329dbef41323c40ff58ab92a7a515fa3748eec01e84a15bea021ff7eef01",
      "transactionType": "CREATE",
      "contractName": "SimplePaymasterV6",
      "contractAddress": "0xf8768fc576ea0cd866c68841f71cc8fa76fdd5bf",
      "function": null,
      "arguments": [
        "0x5FF137D4b0FDCD49DcA30c7CF57E578a026d2789"
      ],
      "transaction": {
        "from": "0x023c6911c69b6c0e70a76c27b23fe1a32b08bf98",
        "gas": "0x38ed9",
        "value": "0x0",
        "input": "0x60a0604052348015600e575f5ffd5b506040516102bc3803806102bc833981016040819052602b91603b565b6001600160a01b03166080526066565b5f60208284031215604a575f5ffd5b81516001600160a01b0381168114605f575f5ffd5b9392505050565b60805161023f61007d5f395f6052015261023f5ff3fe608060405260043610610036575f3560e01c8063140fcfb114610041578063a9a2340914610091578063f465c77e146100b3575f5ffd5b3661003d57005b5f5ffd5b34801561004c575f5ffd5b506100747f000000000000000000000000000000000000000000000000000000000000000081565b6040516001600160a01b0390911681526020015b60405180910390f35b34801561009c575f5ffd5b506100b16100ab3660046100f2565b50505050565b005b3480156100be575f5ffd5b506100e46100cd36600461017e565b60408051602081019091525f808252935093915050565b6040516100889291906101cd565b5f5f5f5f60608587031215610105575f5ffd5b843560ff81168114610115575f5ffd5b9350602085013567ffffffffffffffff811115610130575f5ffd5b8501601f81018713610140575f5ffd5b803567ffffffffffffffff811115610156575f5ffd5b876020828401011115610167575f5ffd5b949760209190910196509394604001359392505050565b5f5f5f60608486031215610190575f5ffd5b833567ffffffffffffffff8111156101a6575f5ffd5b840161016081870312156101b8575f5ffd5b95602085013595506040909401359392505050565b604081525f83518060408401528060208601606085015e5f606082850101526060601f19601f830116840101915050826020830152939250505056fea26469706673582212200894503307d8a9185ce5bbbb81a245e9711b35ab4ecfd0722622cabfb85fc12164736f6c634300081c00330000000000000000000000005ff137d4b0fdcd49dca30c7cf57e578a026d2789",
        "nonce": "0x43",
        "chainId": "0xaa36a7"
      },
      "additionalContracts": [],
      "isFixedGasLimit": false
    },
    {
      "hash": "0x228fd59507c86e63d1857d191934ee95fddbf2faf84de09723be3d618949244f",
      "transactionType": "CALL",
      "contractName": null,
      "contractAddress": "0x5ff137d4b0fdcd49dca30c7cf57e578a026d2789",
      "function": "depositTo(address)",
      "arguments": [
        "0xF8768fc576Ea0CD866C68841F71CC8fA76Fdd5bf"
      ],
      "transaction": {
        "from": "0x023c6911c69b6c0e70a76c27b23fe1a32b08bf98",
        "to": "0x5ff137d4b0fdcd49dca30c7cf57e578a026d2789",
        "gas": "0x10670",
        "value": "0x2386f26fc10000",
        "input": "0xb760faf9000000000000000000000000f8768fc576ea0cd866c68841f71cc8fa76fdd5bf",
        "nonce": "0x44",
        "chainId": "0xaa36a7"
      },
      "additionalContracts": [],
      "isFixedGasLimit": false
    },
    {
      "hash": "0xf37ab0a04a31fb95da7db2bc62d72b77b53b3fc3b6f7fa46ccb213ac7f36e6e5",
      "transactionType": "CALL",
      "contractName": null,
      "contractAddress": "0x5ff137d4b0fdcd49dca30c7cf57e578a026d2789",
      "function": "handleOps((address,uint256,bytes,bytes,uint256,uint256,uint256,uint256,uint256,bytes,bytes)[],address)",
      "arguments": [
        "[(0x93EE03f80d4E41785AE155FB2b64bEC4eE302055, 0, 0x, 0xb61d27f6000000000000000000000000000000000000000000000000000000000000dead000000000000000000000000000000000000000000000000000000000000000000000000000000000000000000000000000000000000000000000000000000600000000000000000000000000000000000000000000000000000000000000000, 100000, 200000, 50000, 10000000000, 2000000000, 0xf8768fc576ea0cd866c68841f71cc8fa76fdd5bf, 0x1552c1b6ec91e9066af7bbb41ee4ff75be873027d2d7c7a5d3a716f1aa9b94726faf1c1d7b611ba4c91317876307d1cb41b74cb9f8d6ec85d4e9a50506d728821c)]",
        "0x023c6911c69b6c0E70A76C27b23fe1A32b08Bf98"
      ],
      "transaction": {
        "from": "0x023c6911c69b6c0e70a76c27b23fe1a32b08bf98",
        "to": "0x5ff137d4b0fdcd49dca30c7cf57e578a026d2789",
        "gas": "0x2026d",
        "value": "0x0",
        "input": "0x1fad948c0000000000000000000000000000000000000000000000000000000000000040000000000000000000000000023c6911c69b6c0e70a76c27b23fe1a32b08bf980000000000000000000000000000000000000000000000000000000000000001000000000000000000000000000000000000000000000000000000000000002000000000000000000000000093ee03f80d4e41785ae155fb2b64bec4ee30205500000000000000000000000000000000000000000000000000000000000000000000000000000000000000000000000000000000000000000000000000000160000000000000000000000000000000000000000000000000000000000000018000000000000000000000000000000000000000000000000000000000000186a00000000000000000000000000000000000000000000000000000000000030d40000000000000000000000000000000000000000000000000000000000000c35000000000000000000000000000000000000000000000000000000002540be40000000000000000000000000000000000000000000000000000000000773594000000000000000000000000000000000000000000000000000000000000000240000000000000000000000000000000000000000000000000000000000000028000000000000000000000000000000000000000000000000000000000000000000000000000000000000000000000000000000000000000000000000000000084b61d27f6000000000000000000000000000000000000000000000000000000000000dead000000000000000000000000000000000000000000000000000000000000000000000000000000000000000000000000000000000000000000000000000000600000000000000000000000000000000000000000000000000000000000000000000000000000000000000000000000000000000000000000000000000000000000000000000000000000000000000000000000000000000000000014f8768fc576ea0cd866c68841f71cc8fa76fdd5bf00000000000000000000000000000000000000000000000000000000000000000000000000000000000000411552c1b6ec91e9066af7bbb41ee4ff75be873027d2d7c7a5d3a716f1aa9b94726faf1c1d7b611ba4c91317876307d1cb41b74cb9f8d6ec85d4e9a50506d728821c00000000000000000000000000000000000000000000000000000000000000",
        "nonce": "0x45",
        "chainId": "0xaa36a7"
      },
      "additionalContracts": [],
      "isFixedGasLimit": false
    }
  ],
  "receipts": [
    {
      "status": "0x1",
      "cumulativeGasUsed": "0x7813a0",
      "logs": [],
      "logsBloom": "0x00000000000000000000000000000000000000000000000000000000000000000000000000000000000000000000000000000000000000000000000000000000000000000000000000000000000000000000000000000000000000000000000000000000000000000000000000000000000000000000000000000000000000000000000000000000000000000000000000000000000000000000000000000000000000000000000000000000000000000000000000000000000000000000000000000000000000000000000000000000000000000000000000000000000000000000000000000000000000000000000000000000000000000000000000000000",
      "type": "0x2",
      "transactionHash": "0x39d417492ac8f6588a3bb00c7021be39bcfcea8560d98ee8d157a34032e29890",
      "transactionIndex": "0x52",
      "blockHash": "0xb34f845d76e2bc91e7caf42268a4d27bd25a6df11ffd91ab35dd03dbdc0b8606",
      "blockNumber": "0x9875d7",
      "gasUsed": "0x58930",
      "effectiveGasPrice": "0x6d17",
      "from": "0x023c6911c69b6c0e70a76c27b23fe1a32b08bf98",
      "to": null,
      "contractAddress": "0x93ee03f80d4e41785ae155fb2b64bec4ee302055"
    },
    {
      "status": "0x1",
      "cumulativeGasUsed": "0x7ad047",
      "logs": [],
      "logsBloom": "0x00000000000000000000000000000000000000000000000000000000000000000000000000000000000000000000000000000000000000000000000000000000000000000000000000000000000000000000000000000000000000000000000000000000000000000000000000000000000000000000000000000000000000000000000000000000000000000000000000000000000000000000000000000000000000000000000000000000000000000000000000000000000000000000000000000000000000000000000000000000000000000000000000000000000000000000000000000000000000000000000000000000000000000000000000000000",
      "type": "0x2",
      "transactionHash": "0x1014329dbef41323c40ff58ab92a7a515fa3748eec01e84a15bea021ff7eef01",
      "transactionIndex": "0x53",
      "blockHash": "0xb34f845d76e2bc91e7caf42268a4d27bd25a6df11ffd91ab35dd03dbdc0b8606",
      "blockNumber": "0x9875d7",
      "gasUsed": "0x2bca7",
      "effectiveGasPrice": "0x6d17",
      "from": "0x023c6911c69b6c0e70a76c27b23fe1a32b08bf98",
      "to": null,
      "contractAddress": "0xf8768fc576ea0cd866c68841f71cc8fa76fdd5bf"
    },
    {
      "status": "0x1",
      "cumulativeGasUsed": "0x7b83b9",
      "logs": [
        {
          "address": "0x5ff137d4b0fdcd49dca30c7cf57e578a026d2789",
          "topics": [
            "0x2da466a7b24304f47e87fa2e1e5a81b9831ce54fec19055ce277ca2f39ba42c4",
            "0x000000000000000000000000f8768fc576ea0cd866c68841f71cc8fa76fdd5bf"
          ],
          "data": "0x000000000000000000000000000000000000000000000000002386f26fc10000",
          "blockHash": "0xb34f845d76e2bc91e7caf42268a4d27bd25a6df11ffd91ab35dd03dbdc0b8606",
          "blockNumber": "0x9875d7",
          "blockTimestamp": "0x695d4e54",
          "transactionHash": "0x228fd59507c86e63d1857d191934ee95fddbf2faf84de09723be3d618949244f",
          "transactionIndex": "0x54",
          "logIndex": "0x6d",
          "removed": false
        }
      ],
      "logsBloom": "0x00000000000000000000000002000000000000000000000000000000000000002000000000000000000200000000000000100000000000000000000000000000000000000000001000000000000000000000000000000000000000000000200000000000080000000000000000000000000000000000000000000000000200000000000000000000000000000000000000000000000000000000000000000000000000000000000000000000000000000000000000000000000000000000000000000000000000000000000000000000000000000000000000000000000000000040000000000000000000000000000000000000000000000000000000000000",
      "type": "0x2",
      "transactionHash": "0x228fd59507c86e63d1857d191934ee95fddbf2faf84de09723be3d618949244f",
      "transactionIndex": "0x54",
      "blockHash": "0xb34f845d76e2bc91e7caf42268a4d27bd25a6df11ffd91ab35dd03dbdc0b8606",
      "blockNumber": "0x9875d7",
      "gasUsed": "0xb372",
      "effectiveGasPrice": "0x6d17",
      "from": "0x023c6911c69b6c0e70a76c27b23fe1a32b08bf98",
      "to": "0x5ff137d4b0fdcd49dca30c7cf57e578a026d2789",
      "contractAddress": null
    }
  ],
  "libraries": [],
  "pending": [],
  "returns": {},
  "timestamp": 1767722583801,
  "chain": 11155111,
  "commit": null
}