{
  "transactions": [
    {
      "hash": "0x171d12cfc53fc3292ebb9db0c325cf986a0cc1e22d15b1260595cd5d290342b1",
      "transactionType": "CALL",
      "contractName": null,
      "contractAddress": "0x5ff137d4b0fdcd49dca30c7cf57e578a026d2789",
      "function": "depositTo(address)",
      "arguments": [
        "0xBa005610bC3E97AeeC336B2A3E67Ce94Fc0bf8Fb"
      ],
      "transaction": {
        "from": "0x023c6911c69b6c0e70a76c27b23fe1a32b08bf98",
        "to": "0x5ff137d4b0fdcd49dca30c7cf57e578a026d2789",
        "gas": "0xf7ca",
        "value": "0x2386f26fc10000",
        "input": "0xb760faf9000000000000000000000000ba005610bc3e97aeec336b2a3e67ce94fc0bf8fb",
        "nonce": "0x33",
        "chainId": "0xaa36a7"
      },
      "additionalContracts": [],
      "isFixedGasLimit": false
    }
  ],
  "receipts": [
    {
      "status": "0x1",
      "cumulativeGasUsed": "0x6a86c9",
      "logs": [
        {
          "address": "0x5ff137d4b0fdcd49dca30c7cf57e578a026d2789",
          "topics": [
            "0x2da466a7b24304f47e87fa2e1e5a81b9831ce54fec19055ce277ca2f39ba42c4",
            "0x000000000000000000000000ba005610bc3e97aeec336b2a3e67ce94fc0bf8fb"
          ],
          "data": "0x000000000000000000000000000000000000000000000000002386f26fc10000",
          "blockHash": "0x056b6c6148ea7e3e95d899c35f3df5f4cab1ffb23776b056c91b6fb529f1c05c",
          "blockNumber": "0x986b76",
          "blockTimestamp": "0x695cc0c4",
          "transactionHash": "0x171d12cfc53fc3292ebb9db0c325cf986a0cc1e22d15b1260595cd5d290342b1",
          "transactionIndex": "0x51",
          "logIndex": "0x5b",
          "removed": false
        }
      ],
      "logsBloom": "0x00000000000000000000000000000000000000000000000000000000000000000000000000000000000200000000000000100000000000000000000000000000000000000000000000000000000000000000000000000000000000000000200000000000080000000000000000000000000000000000000000000000000200000000000000000000000000000000000000000000000000000000000000000000000000000000000000000000000000000000000400000000000000000000000000000000000000000000000000000200000000000000000000000000000000000040000000000000000000000000000000000000000000000000400000000000",
      "type": "0x0",
      "transactionHash": "0x171d12cfc53fc3292ebb9db0c325cf986a0cc1e22d15b1260595cd5d290342b1",
      "transactionIndex": "0x51",
      "blockHash": "0x056b6c6148ea7e3e95d899c35f3df5f4cab1ffb23776b056c91b6fb529f1c05c",
      "blockNumber": "0x986b76",
      "gasUsed": "0xb366",
      "effectiveGasPrice": "0xf4248",
      "from": "0x023c6911c69b6c0e70a76c27b23fe1a32b08bf98",
      "to": "0x5ff137d4b0fdcd49dca30c7cf57e578a026d2789",
      "contractAddress": null
    }
  ],
  "libraries": [],
  "pending": [],
  "returns": {},
  "timestamp": 1767686339619,
  "chain": 11155111,
  "commit": null
}